:0E0000000C942A000C9400000C9400000C9448
:10000E0000000C9400000C9400000C9400000C9462
:10001E0000000C9400000C9400000C9400000C9452
:10002E0000000C9400000C9400000C9400000C9442
:10003E0000000C9400000C9400000C9400000C9432
:10004E0000000C940000F894EE27ECBBF1E0FBBF2F
:10005E00EBBFE5BFF8E1F1BDE1BD8DE0A2E0BB274E
:10006E00ED938A95E9F780E098E0A0E6ED9301978D
:10007E00E9F7EFE5EDBFE8E0EEBFC0E6D2E00C94A5
:10008E005700AA93E881E064E7B98BE18A95F1F70E
:10009E00369A349BFECF349AE4B1F5B12196089589
:1000AE00E0E0EBBBEABBE8BBE3E0E7BBE0E0E5BBCF
:1000BE00E4BBE2BBE1BBE3BFE2BFECBFEFBDEEBD15
:1000CE00EDBDECBDE7BDE6BDEBBDEABDE9BDE8BDEE
:1000DE00E2BDE5BDE4BDE3BDE5BFE4BFE9BFEAB9FE
:1000EE00E0E8E8B9E0E0E0BFE0E4E7B9E6E8E6B969
:1000FE00E0E0EDB9E6BFC09AA1E0C3DF8F010A3799
:10010E00E0E01E0714F4C09A01C0C198F4CFFFCFEF
:00000001FF
