:0A0000000C942A000C9400000C94EC
:10000A0000000C9400000C9400000C9400000C9466
:10001A0000000C9400000C9400000C9400000C9456
:10002A0000000C9400000C9400000C9400000C9446
:10003A0000000C9400000C9400000C9400000C9436
:10004A0000000C9400000C940000F894EE27ECBB1E
:10005A00F1E0F5BFE5BFF8E1F1BDE1BD8DE0A2E059
:10006A00BB27ED938A95E9F780E098E0A0E6ED9347
:10007A000197E9F7EFE5EDBFE8E0EEBFC0E6D2E0B1
:10008A000C945600AA93E881E064E7B98BE18A955B
:10009A00F1F7369A349BFECF349AE4B1F5B1219642
:1000AA000895E0E0EBBBEABBE8BBE7E0E7BBE0E0D2
:1000BA00E5BBEFE3E4BBE0E0E2BBEFE3E1BBE0E09A
:1000CA00E3BFE2BFECBFEFBDEEBDEDBDECBDE7BDEA
:1000DA00E6BDEBBDEABDE9BDE8BDE2BDE5BDE4BDF7
:1000EA00E3BDE5BFE4BFE9BFEAB9E0E8E8B9E0E0AB
:1000FA00E0BFE0E4E7B9E3E8E6B9E0E0EDB9E6BF7E
:10010A0037D00CF046D0443FE1E05E070CF446D00D
:10011A00253FE1E03E070CF046D0453FE1E05E07AF
:10012A000CF041D025D00CF034D0443FE1E05E071A
:10013A000CF434D0253FE1E03E070CF034D0453FC3
:10014A00E1E05E070CF02FD013D00CF022D0443F30
:10015A00E1E05E070CF422D0253FE1E03E070CF017
:10016A0022D0453FE1E05E070CF01DD0C9CFFFCF9A
:10017A00A0E088DF8F01A2E085DF9F01A3E082DF94
:10018A00AF01919A949AA99AAC9A453FE1E05E0729
:10019A000895AA98A89AAB98AD9A0895AA9AA89889
:1001AA00AB98AD9A0895AA98A898AB98AD989098EC
:1001BA00929AA8EBBBE00E94EB00909A9298A8EB67
:1001CA00BBE00E94EB0090989298E8CF109639F025
:1001DA0080ED97E00197F1F7A8951197C9F708956F
:00000001FF
