:0E0000000C942A000C9400000C9400000C9448
:10000E0000000C9400000C9400000C9400000C9462
:10001E0000000C9400000C9400000C9400000C9452
:10002E0000000C9400000C9400000C9400000C9442
:10003E0000000C9400000C9400000C9400000C9432
:10004E0000000C940000F894EE27ECBBF1E0F5BF35
:10005E00E5BFF8E1F1BDE1BD8DE0A2E0BB27ED9378
:10006E008A95E9F780E098E0A0E6ED930197E9F72D
:10007E00EFE5EDBFE8E0EEBFC0E6D2E00C9456002F
:10008E00AA93E881E064E7B98BE18A95F1F7369A95
:10009E00349BFECF349AE4B1F5B121960895E0E099
:1000AE00EBBBEABBE8BBE7E0E7BBE0E0E5BBEFE1BB
:1000BE00E4BBE0E0E2BBEFE3E1BBE0E0E3BFE2BFC5
:1000CE00ECBFEFBDEEBDEDBDECBDE7BDE6BDEBBDDE
:1000DE00EABDE9BDE8BDE2BDE5BDE4BDE3BDE5BFFA
:1000EE00E4BFE9BFEAB9E0E8E8B9E0E0E0BFE0E488
:1000FE00E7B9E3E8E6B9E0E0EDB9E6BFA0E0C0DFBE
:10010E009F01A1E0BDDFAF01A2E0BADF8F01919A9E
:10011E00A99AAC9AA89AAA98AB9AAD98253FE1E015
:10012E003E0724F0AA98A898AB9807C0243FE1E0B8
:10013E003E0724F4A89AAA98AB9AAD98453FE1E001
:10014E005E0724F0AA98A898AB9807C0443FE1E058
:10015E005E0724F4A89AAA98AB9AAD98CFCFFFCF9A
:00000001FF
